{
  "_format": "hh-sol-artifact-1",
  "contractName": "GameRoom",
  "sourceName": "contracts/GameRoom.sol",
  "abi": [
    {
      "inputs": [
        {
          "internalType": "address",
          "name": "_token",
          "type": "address"
        },
        {
          "internalType": "address",
          "name": "_bank",
          "type": "address"
        },
        {
          "internalType": "address",
          "name": "_host",
          "type": "address"
        },
        {
          "internalType": "uint256",
          "name": "_betAmount",
          "type": "uint256"
        },
        {
          "internalType": "uint256",
          "name": "_maxPlayers",
          "type": "uint256"
        },
        {
          "internalType": "uint256",
          "name": "_topicId",
          "type": "uint256"
        },
        {
          "internalType": "uint256",
          "name": "_stylingDuration",
          "type": "uint256"
        },
        {
          "internalType": "uint256",
          "name": "_votingDuration",
          "type": "uint256"
        }
      ],
      "stateMutability": "nonpayable",
      "type": "constructor"
    },
    {
      "anonymous": false,
      "inputs": [
        {
          "indexed": false,
          "internalType": "address[]",
          "name": "winners",
          "type": "address[]"
        },
        {
          "indexed": false,
          "internalType": "uint256",
          "name": "finalPot",
          "type": "uint256"
        },
        {
          "indexed": false,
          "internalType": "uint256",
          "name": "payoutPerWinner",
          "type": "uint256"
        }
      ],
      "name": "Finalized",
      "type": "event"
    },
    {
      "anonymous": false,
      "inputs": [],
      "name": "GameCanceled",
      "type": "event"
    },
    {
      "anonymous": false,
      "inputs": [
        {
          "indexed": false,
          "internalType": "uint256",
          "name": "stylingDeadline",
          "type": "uint256"
        }
      ],
      "name": "GameStarted",
      "type": "event"
    },
    {
      "anonymous": false,
      "inputs": [
        {
          "indexed": true,
          "internalType": "address",
          "name": "player",
          "type": "address"
        },
        {
          "indexed": false,
          "internalType": "uint256",
          "name": "outfitCode",
          "type": "uint256"
        }
      ],
      "name": "OutfitSubmitted",
      "type": "event"
    },
    {
      "anonymous": false,
      "inputs": [
        {
          "indexed": true,
          "internalType": "address",
          "name": "player",
          "type": "address"
        },
        {
          "indexed": false,
          "internalType": "uint256",
          "name": "totalPlayers",
          "type": "uint256"
        }
      ],
      "name": "PlayerJoined",
      "type": "event"
    },
    {
      "anonymous": false,
      "inputs": [
        {
          "indexed": true,
          "internalType": "address",
          "name": "voter",
          "type": "address"
        },
        {
          "indexed": true,
          "internalType": "address",
          "name": "target",
          "type": "address"
        },
        {
          "indexed": false,
          "internalType": "uint8",
          "name": "stars",
          "type": "uint8"
        }
      ],
      "name": "VoteCast",
      "type": "event"
    },
    {
      "anonymous": false,
      "inputs": [
        {
          "indexed": false,
          "internalType": "uint256",
          "name": "votingDeadline",
          "type": "uint256"
        }
      ],
      "name": "VotingStarted",
      "type": "event"
    },
    {
      "inputs": [],
      "name": "bank",
      "outputs": [
        {
          "internalType": "contract IGameBank",
          "name": "",
          "type": "address"
        }
      ],
      "stateMutability": "view",
      "type": "function"
    },
    {
      "inputs": [],
      "name": "betAmount",
      "outputs": [
        {
          "internalType": "uint256",
          "name": "",
          "type": "uint256"
        }
      ],
      "stateMutability": "view",
      "type": "function"
    },
    {
      "inputs": [],
      "name": "cancelGame",
      "outputs": [],
      "stateMutability": "nonpayable",
      "type": "function"
    },
    {
      "inputs": [
        {
          "internalType": "address[]",
          "name": "targets",
          "type": "address[]"
        },
        {
          "internalType": "uint8[]",
          "name": "stars",
          "type": "uint8[]"
        }
      ],
      "name": "castVotes",
      "outputs": [],
      "stateMutability": "nonpayable",
      "type": "function"
    },
    {
      "inputs": [],
      "name": "finalPot",
      "outputs": [
        {
          "internalType": "uint256",
          "name": "",
          "type": "uint256"
        }
      ],
      "stateMutability": "view",
      "type": "function"
    },
    {
      "inputs": [],
      "name": "finalize",
      "outputs": [],
      "stateMutability": "nonpayable",
      "type": "function"
    },
    {
      "inputs": [
        {
          "internalType": "address",
          "name": "player",
          "type": "address"
        }
      ],
      "name": "getOutfit",
      "outputs": [
        {
          "internalType": "bool",
          "name": "hasOutfit",
          "type": "bool"
        },
        {
          "internalType": "uint256",
          "name": "outfitCode",
          "type": "uint256"
        }
      ],
      "stateMutability": "view",
      "type": "function"
    },
    {
      "inputs": [],
      "name": "getPlayers",
      "outputs": [
        {
          "internalType": "address[]",
          "name": "",
          "type": "address[]"
        }
      ],
      "stateMutability": "view",
      "type": "function"
    },
    {
      "inputs": [],
      "name": "getWinners",
      "outputs": [
        {
          "internalType": "address[]",
          "name": "",
          "type": "address[]"
        },
        {
          "internalType": "uint256",
          "name": "",
          "type": "uint256"
        },
        {
          "internalType": "uint256",
          "name": "",
          "type": "uint256"
        }
      ],
      "stateMutability": "view",
      "type": "function"
    },
    {
      "inputs": [
        {
          "internalType": "address",
          "name": "",
          "type": "address"
        }
      ],
      "name": "hasVoted",
      "outputs": [
        {
          "internalType": "bool",
          "name": "",
          "type": "bool"
        }
      ],
      "stateMutability": "view",
      "type": "function"
    },
    {
      "inputs": [],
      "name": "host",
      "outputs": [
        {
          "internalType": "address",
          "name": "",
          "type": "address"
        }
      ],
      "stateMutability": "view",
      "type": "function"
    },
    {
      "inputs": [],
      "name": "joinGame",
      "outputs": [],
      "stateMutability": "nonpayable",
      "type": "function"
    },
    {
      "inputs": [
        {
          "internalType": "address",
          "name": "",
          "type": "address"
        }
      ],
      "name": "joined",
      "outputs": [
        {
          "internalType": "bool",
          "name": "",
          "type": "bool"
        }
      ],
      "stateMutability": "view",
      "type": "function"
    },
    {
      "inputs": [],
      "name": "maxPlayers",
      "outputs": [
        {
          "internalType": "uint256",
          "name": "",
          "type": "uint256"
        }
      ],
      "stateMutability": "view",
      "type": "function"
    },
    {
      "inputs": [
        {
          "internalType": "address",
          "name": "",
          "type": "address"
        }
      ],
      "name": "outfitOf",
      "outputs": [
        {
          "internalType": "uint256",
          "name": "",
          "type": "uint256"
        }
      ],
      "stateMutability": "view",
      "type": "function"
    },
    {
      "inputs": [],
      "name": "payoutPerWinner",
      "outputs": [
        {
          "internalType": "uint256",
          "name": "",
          "type": "uint256"
        }
      ],
      "stateMutability": "view",
      "type": "function"
    },
    {
      "inputs": [],
      "name": "phase",
      "outputs": [
        {
          "internalType": "enum GameRoom.Phase",
          "name": "",
          "type": "uint8"
        }
      ],
      "stateMutability": "view",
      "type": "function"
    },
    {
      "inputs": [
        {
          "internalType": "uint256",
          "name": "",
          "type": "uint256"
        }
      ],
      "name": "players",
      "outputs": [
        {
          "internalType": "address",
          "name": "",
          "type": "address"
        }
      ],
      "stateMutability": "view",
      "type": "function"
    },
    {
      "inputs": [],
      "name": "startGame",
      "outputs": [],
      "stateMutability": "nonpayable",
      "type": "function"
    },
    {
      "inputs": [],
      "name": "startVoting",
      "outputs": [],
      "stateMutability": "nonpayable",
      "type": "function"
    },
    {
      "inputs": [],
      "name": "stylingDeadline",
      "outputs": [
        {
          "internalType": "uint256",
          "name": "",
          "type": "uint256"
        }
      ],
      "stateMutability": "view",
      "type": "function"
    },
    {
      "inputs": [],
      "name": "stylingDuration",
      "outputs": [
        {
          "internalType": "uint256",
          "name": "",
          "type": "uint256"
        }
      ],
      "stateMutability": "view",
      "type": "function"
    },
    {
      "inputs": [
        {
          "internalType": "uint256",
          "name": "outfitCode",
          "type": "uint256"
        }
      ],
      "name": "submitOutfit",
      "outputs": [],
      "stateMutability": "nonpayable",
      "type": "function"
    },
    {
      "inputs": [
        {
          "internalType": "address",
          "name": "",
          "type": "address"
        }
      ],
      "name": "submitted",
      "outputs": [
        {
          "internalType": "bool",
          "name": "",
          "type": "bool"
        }
      ],
      "stateMutability": "view",
      "type": "function"
    },
    {
      "inputs": [],
      "name": "submittedCount",
      "outputs": [
        {
          "internalType": "uint256",
          "name": "",
          "type": "uint256"
        }
      ],
      "stateMutability": "view",
      "type": "function"
    },
    {
      "inputs": [],
      "name": "token",
      "outputs": [
        {
          "internalType": "contract IERC20",
          "name": "",
          "type": "address"
        }
      ],
      "stateMutability": "view",
      "type": "function"
    },
    {
      "inputs": [],
      "name": "topicId",
      "outputs": [
        {
          "internalType": "uint256",
          "name": "",
          "type": "uint256"
        }
      ],
      "stateMutability": "view",
      "type": "function"
    },
    {
      "inputs": [
        {
          "internalType": "address",
          "name": "",
          "type": "address"
        }
      ],
      "name": "totalStars",
      "outputs": [
        {
          "internalType": "uint256",
          "name": "",
          "type": "uint256"
        }
      ],
      "stateMutability": "view",
      "type": "function"
    },
    {
      "inputs": [
        {
          "internalType": "address",
          "name": "",
          "type": "address"
        }
      ],
      "name": "voteCount",
      "outputs": [
        {
          "internalType": "uint256",
          "name": "",
          "type": "uint256"
        }
      ],
      "stateMutability": "view",
      "type": "function"
    },
    {
      "inputs": [],
      "name": "votingDeadline",
      "outputs": [
        {
          "internalType": "uint256",
          "name": "",
          "type": "uint256"
        }
      ],
      "stateMutability": "view",
      "type": "function"
    },
    {
      "inputs": [],
      "name": "votingDuration",
      "outputs": [
        {
          "internalType": "uint256",
          "name": "",
          "type": "uint256"
        }
      ],
      "stateMutability": "view",
      "type": "function"
    },
    {
      "inputs": [
        {
          "internalType": "uint256",
          "name": "",
          "type": "uint256"
        }
      ],
      "name": "winners",
      "outputs": [
        {
          "internalType": "address",
          "name": "",
          "type": "address"
        }
      ],
      "stateMutability": "view",
      "type": "function"
    }
  ],
  "bytecode": "0x608060405234801561001057600080fd5b506040516137c83803806137c8833981810160405281019061003291906101e8565b876000806101000a81548173ffffffffffffffffffffffffffffffffffffffff021916908373ffffffffffffffffffffffffffffffffffffffff16021790555086600160006101000a81548173ffffffffffffffffffffffffffffffffffffffff021916908373ffffffffffffffffffffffffffffffffffffffff16021790555085600260006101000a81548173ffffffffffffffffffffffffffffffffffffffff021916908373ffffffffffffffffffffffffffffffffffffffff1602179055508460038190555083600481905550826005819055508160098190555080600a819055506000600660006101000a81548160ff0219169083600481111561013d5761013c61029e565b5b021790555050505050505050506102cd565b600080fd5b600073ffffffffffffffffffffffffffffffffffffffff82169050919050565b600061017f82610154565b9050919050565b61018f81610174565b811461019a57600080fd5b50565b6000815190506101ac81610186565b92915050565b6000819050919050565b6101c5816101b2565b81146101d057600080fd5b50565b6000815190506101e2816101bc565b92915050565b600080600080600080600080610100898b0312156102095761020861014f565b5b60006102178b828c0161019d565b98505060206102288b828c0161019d565b97505060406102398b828c0161019d565b965050606061024a8b828c016101d3565b955050608061025b8b828c016101d3565b94505060a061026c8b828c016101d3565b93505060c061027d8b828c016101d3565b92505060e061028e8b828c016101d3565b9150509295985092959890939650565b7f4e487b7100000000000000000000000000000000000000000000000000000000600052602160045260246000fd5b6134ec806102dc6000396000f3fe608060405234801561001057600080fd5b50600436106101f05760003560e01c8063be65a6781161010f578063e3efe7a6116100a2578063f887d01911610071578063f887d0191461056a578063fc0c546a1461059a578063ff5c2202146105b8578063ff7bef57146105d6576101f0565b8063e3efe7a6146104ce578063f0debe24146104fe578063f437bc591461051c578063f71d96cb1461053a576101f0565b8063d4f77b1c116100de578063d4f77b1c14610490578063d65ab5f21461049a578063d84c1ac9146104a4578063df15c37e146104ae576101f0565b8063be65a678146103f6578063c5bb37e214610426578063d24257c014610456578063d398933814610474576101f0565b80634c2412a2116101875780638b5b9ccc116101565780638b5b9ccc1461036c578063a110d3501461038a578063a2fb1175146103a8578063b1c9fe6e146103d8576101f0565b80634c2412a2146102e25780635e3cd7bc146103005780636dfb98af1461033057806376cdb03b1461034e576101f0565b80631ec6b60a116101c35780631ec6b60a1461027f57806333d7143e1461028957806339790006146102ba5780634bb278f3146102d8576101f0565b80630139b5f1146101f5578063036ee8501461021357806309eef43e14610231578063132002fc14610261575b600080fd5b6101fd6105f2565b60405161020a9190612253565b60405180910390f35b61021b6105f8565b6040516102289190612253565b60405180910390f35b61024b600480360381019061024691906122d6565b6105fe565b604051610258919061231e565b60405180910390f35b61026961061e565b6040516102769190612253565b60405180910390f35b610287610624565b005b6102a3600480360381019061029e91906122d6565b61084c565b6040516102b1929190612339565b60405180910390f35b6102c26108e5565b6040516102cf9190612253565b60405180910390f35b6102e06108eb565b005b6102ea610ecd565b6040516102f79190612253565b60405180910390f35b61031a600480360381019061031591906122d6565b610ed3565b6040516103279190612253565b60405180910390f35b610338610eeb565b6040516103459190612253565b60405180910390f35b610356610ef1565b60405161036391906123c1565b60405180910390f35b610374610f17565b604051610381919061249a565b60405180910390f35b610392610fa5565b60405161039f9190612253565b60405180910390f35b6103c260048036038101906103bd91906124e8565b610fab565b6040516103cf9190612524565b60405180910390f35b6103e0610fea565b6040516103ed91906125b6565b60405180910390f35b610410600480360381019061040b91906122d6565b610ffd565b60405161041d9190612253565b60405180910390f35b610440600480360381019061043b91906122d6565b611015565b60405161044d919061231e565b60405180910390f35b61045e611035565b60405161046b9190612253565b60405180910390f35b61048e6004803603810190610489919061268c565b61103b565b005b610498611656565b005b6104a2611943565b005b6104ac611b0c565b005b6104b6611d37565b6040516104c59392919061270d565b60405180910390f35b6104e860048036038101906104e391906122d6565b611dd7565b6040516104f59190612253565b60405180910390f35b610506611def565b6040516105139190612253565b60405180910390f35b610524611df5565b6040516105319190612524565b60405180910390f35b610554600480360381019061054f91906124e8565b611e1b565b6040516105619190612524565b60405180910390f35b610584600480360381019061057f91906122d6565b611e5a565b604051610591919061231e565b60405180910390f35b6105a2611e7a565b6040516105af919061276c565b60405180910390f35b6105c0611e9e565b6040516105cd9190612253565b60405180910390f35b6105f060048036038101906105eb91906124e8565b611ea4565b005b60055481565b60085481565b60126020528060005260406000206000915054906101000a900460ff1681565b600a5481565b600260009054906101000a900473ffffffffffffffffffffffffffffffffffffffff1673ffffffffffffffffffffffffffffffffffffffff163373ffffffffffffffffffffffffffffffffffffffff16146106b4576040517f08c379a00000000000000000000000000000000000000000000000000000000081526004016106ab906127e4565b60405180910390fd5b600160048111156106c8576106c761253f565b5b600660009054906101000a900460ff1660048111156106ea576106e961253f565b5b1461072a576040517f08c379a000000000000000000000000000000000000000000000000000000000815260040161072190612850565b60405180910390fd5b6002600f541015610770576040517f08c379a0000000000000000000000000000000000000000000000000000000008152600401610767906128bc565b60405180910390fd5b6000600b80549050600f541490506000600754421015905081806107915750805b6107d0576040517f08c379a00000000000000000000000000000000000000000000000000000000081526004016107c790612928565b60405180910390fd5b6002600660006101000a81548160ff021916908360048111156107f6576107f561253f565b5b0217905550600a54426108099190612977565b6008819055507fcf33babc496bb6dc2942b39cb7b75766bbbadf7da50d176ff8c513e9911402396008546040516108409190612253565b60405180910390a15050565b600080600e60008473ffffffffffffffffffffffffffffffffffffffff1673ffffffffffffffffffffffffffffffffffffffff16815260200190815260200160002060009054906101000a900460ff16600d60008573ffffffffffffffffffffffffffffffffffffffff1673ffffffffffffffffffffffffffffffffffffffff1681526020019081526020016000205491509150915091565b60075481565b600260048111156108ff576108fe61253f565b5b600660009054906101000a900460ff1660048111156109215761092061253f565b5b14610961576040517f08c379a0000000000000000000000000000000000000000000000000000000008152600401610958906129f7565b60405180910390fd5b600854421015806109765750610975612138565b5b6109b5576040517f08c379a00000000000000000000000000000000000000000000000000000000081526004016109ac90612a63565b60405180910390fd5b60008060005b600b80549050811015610b37576000600b82815481106109de576109dd612a83565b5b9060005260206000200160009054906101000a900473ffffffffffffffffffffffffffffffffffffffff169050600e60008273ffffffffffffffffffffffffffffffffffffffff1673ffffffffffffffffffffffffffffffffffffffff16815260200190815260200160002060009054906101000a900460ff16610a625750610b2a565b8280610a6d90612ab2565b9350506000601160008373ffffffffffffffffffffffffffffffffffffffff1673ffffffffffffffffffffffffffffffffffffffff168152602001908152602001600020549050600080821115610b1a5781620f4240601060008673ffffffffffffffffffffffffffffffffffffffff1673ffffffffffffffffffffffffffffffffffffffff16815260200190815260200160002054610b0d9190612afa565b610b179190612b6b565b90505b85811115610b26578095505b5050505b80806001019150506109bb565b506002811015610b7c576040517f08c379a0000000000000000000000000000000000000000000000000000000008152600401610b7390612be8565b60405180910390fd5b60136000610b8a91906121fc565b60005b600b80549050811015610d60576000600b8281548110610bb057610baf612a83565b5b9060005260206000200160009054906101000a900473ffffffffffffffffffffffffffffffffffffffff169050600e60008273ffffffffffffffffffffffffffffffffffffffff1673ffffffffffffffffffffffffffffffffffffffff16815260200190815260200160002060009054906101000a900460ff16610c345750610d53565b6000601160008373ffffffffffffffffffffffffffffffffffffffff1673ffffffffffffffffffffffffffffffffffffffff1681526020019081526020016000205490506000808211610c88576000610ce2565b81620f4240601060008673ffffffffffffffffffffffffffffffffffffffff1673ffffffffffffffffffffffffffffffffffffffff16815260200190815260200160002054610cd79190612afa565b610ce19190612b6b565b5b9050858103610d4f576013839080600181540180825580915050600190039060005260206000200160009091909190916101000a81548173ffffffffffffffffffffffffffffffffffffffff021916908373ffffffffffffffffffffffffffffffffffffffff1602179055505b5050505b8080600101915050610b8d565b50600060138054905011610da9576040517f08c379a0000000000000000000000000000000000000000000000000000000008152600401610da090612c54565b60405180910390fd5b600080600160009054906101000a900473ffffffffffffffffffffffffffffffffffffffff1673ffffffffffffffffffffffffffffffffffffffff16634180c2d560136040518263ffffffff1660e01b8152600401610e089190612d60565b60408051808303816000875af1158015610e26573d6000803e3d6000fd5b505050506040513d601f19601f82011682018060405250810190610e4a9190612d97565b9150915081601581905550806014819055506003600660006101000a81548160ff02191690836004811115610e8257610e8161253f565b5b02179055507f3bad7dca94676678915d6fafb74893ac611214ecc41c8c401bc8650faf35699d6013601454601554604051610ebf93929190612dd7565b60405180910390a150505050565b60045481565b60116020528060005260406000206000915090505481565b60095481565b600160009054906101000a900473ffffffffffffffffffffffffffffffffffffffff1681565b6060600b805480602002602001604051908101604052809291908181526020018280548015610f9b57602002820191906000526020600020905b8160009054906101000a900473ffffffffffffffffffffffffffffffffffffffff1673ffffffffffffffffffffffffffffffffffffffff1681526020019060010190808311610f51575b5050505050905090565b60145481565b60138181548110610fbb57600080fd5b906000526020600020016000915054906101000a900473ffffffffffffffffffffffffffffffffffffffff1681565b600660009054906101000a900460ff1681565b60106020528060005260406000206000915090505481565b600e6020528060005260406000206000915054906101000a900460ff1681565b60035481565b600c60003373ffffffffffffffffffffffffffffffffffffffff1673ffffffffffffffffffffffffffffffffffffffff16815260200190815260200160002060009054906101000a900460ff166110c7576040517f08c379a00000000000000000000000000000000000000000000000000000000081526004016110be90612e61565b60405180910390fd5b600260048111156110db576110da61253f565b5b600660009054906101000a900460ff1660048111156110fd576110fc61253f565b5b1461113d576040517f08c379a0000000000000000000000000000000000000000000000000000000008152600401611134906129f7565b60405180910390fd5b601260003373ffffffffffffffffffffffffffffffffffffffff1673ffffffffffffffffffffffffffffffffffffffff16815260200190815260200160002060009054906101000a900460ff16156111ca576040517f08c379a00000000000000000000000000000000000000000000000000000000081526004016111c190612ecd565b60405180910390fd5b818190508484905014611212576040517f08c379a000000000000000000000000000000000000000000000000000000000815260040161120990612f39565b60405180910390fd5b60008484905011611258576040517f08c379a000000000000000000000000000000000000000000000000000000000815260040161124f90612fa5565b60405180910390fd5b6001601260003373ffffffffffffffffffffffffffffffffffffffff1673ffffffffffffffffffffffffffffffffffffffff16815260200190815260200160002060006101000a81548160ff02191690831515021790555060005b8484905081101561164f5760008585838181106112d3576112d2612a83565b5b90506020020160208101906112e891906122d6565b90503373ffffffffffffffffffffffffffffffffffffffff168173ffffffffffffffffffffffffffffffffffffffff1603611358576040517f08c379a000000000000000000000000000000000000000000000000000000000815260040161134f90613011565b60405180910390fd5b600c60008273ffffffffffffffffffffffffffffffffffffffff1673ffffffffffffffffffffffffffffffffffffffff16815260200190815260200160002060009054906101000a900460ff166113e4576040517f08c379a00000000000000000000000000000000000000000000000000000000081526004016113db9061307d565b60405180910390fd5b600e60008273ffffffffffffffffffffffffffffffffffffffff1673ffffffffffffffffffffffffffffffffffffffff16815260200190815260200160002060009054906101000a900460ff16611470576040517f08c379a0000000000000000000000000000000000000000000000000000000008152600401611467906130e9565b60405180910390fd5b600584848481811061148557611484612a83565b5b905060200201602081019061149a9190613142565b60ff1611156114de576040517f08c379a00000000000000000000000000000000000000000000000000000000081526004016114d5906131bb565b60405180910390fd5b8383838181106114f1576114f0612a83565b5b90506020020160208101906115069190613142565b60ff16601060008373ffffffffffffffffffffffffffffffffffffffff1673ffffffffffffffffffffffffffffffffffffffff16815260200190815260200160002060008282546115579190612977565b925050819055506001601160008373ffffffffffffffffffffffffffffffffffffffff1673ffffffffffffffffffffffffffffffffffffffff16815260200190815260200160002060008282546115ae9190612977565b925050819055508073ffffffffffffffffffffffffffffffffffffffff163373ffffffffffffffffffffffffffffffffffffffff167fde6e96c5b852fdb770372666bf48edaed2ad31ea129b97111f43942589872e6c86868681811061161757611616612a83565b5b905060200201602081019061162c9190613142565b60405161163991906131ea565b60405180910390a35080806001019150506112b3565b5050505050565b6000600481111561166a5761166961253f565b5b600660009054906101000a900460ff16600481111561168c5761168b61253f565b5b146116cc576040517f08c379a00000000000000000000000000000000000000000000000000000000081526004016116c390613251565b60405180910390fd5b600454600b8054905010611715576040517f08c379a000000000000000000000000000000000000000000000000000000000815260040161170c906132bd565b60405180910390fd5b600c60003373ffffffffffffffffffffffffffffffffffffffff1673ffffffffffffffffffffffffffffffffffffffff16815260200190815260200160002060009054906101000a900460ff16156117a2576040517f08c379a000000000000000000000000000000000000000000000000000000000815260040161179990613329565b60405180910390fd5b600160009054906101000a900473ffffffffffffffffffffffffffffffffffffffff1673ffffffffffffffffffffffffffffffffffffffff166347e7ef24336003546040518363ffffffff1660e01b8152600401611801929190613349565b600060405180830381600087803b15801561181b57600080fd5b505af115801561182f573d6000803e3d6000fd5b505050506001600c60003373ffffffffffffffffffffffffffffffffffffffff1673ffffffffffffffffffffffffffffffffffffffff16815260200190815260200160002060006101000a81548160ff021916908315150217905550600b339080600181540180825580915050600190039060005260206000200160009091909190916101000a81548173ffffffffffffffffffffffffffffffffffffffff021916908373ffffffffffffffffffffffffffffffffffffffff1602179055503373ffffffffffffffffffffffffffffffffffffffff167f3330a6773675f31f62070870f40379f8c6d42e3761410011a4dfc42b18043d2f600b805490506040516119399190612253565b60405180910390a2565b600260009054906101000a900473ffffffffffffffffffffffffffffffffffffffff1673ffffffffffffffffffffffffffffffffffffffff163373ffffffffffffffffffffffffffffffffffffffff16146119d3576040517f08c379a00000000000000000000000000000000000000000000000000000000081526004016119ca906127e4565b60405180910390fd5b600060048111156119e7576119e661253f565b5b600660009054906101000a900460ff166004811115611a0957611a0861253f565b5b14611a49576040517f08c379a0000000000000000000000000000000000000000000000000000000008152600401611a4090613251565b60405180910390fd5b6002600b805490501015611a92576040517f08c379a0000000000000000000000000000000000000000000000000000000008152600401611a89906133be565b60405180910390fd5b6001600660006101000a81548160ff02191690836004811115611ab857611ab761253f565b5b021790555060095442611acb9190612977565b6007819055507f50ad08f58a27f2851d7e3a1b3a6a46b290f2ce677e99642d30ff639721e77790600754604051611b029190612253565b60405180910390a1565b600260009054906101000a900473ffffffffffffffffffffffffffffffffffffffff1673ffffffffffffffffffffffffffffffffffffffff163373ffffffffffffffffffffffffffffffffffffffff1614611b9c576040517f08c379a0000000000000000000000000000000000000000000000000000000008152600401611b93906127e4565b60405180910390fd5b60006004811115611bb057611baf61253f565b5b600660009054906101000a900460ff166004811115611bd257611bd161253f565b5b1480611c11575060016004811115611bed57611bec61253f565b5b600660009054906101000a900460ff166004811115611c0f57611c0e61253f565b5b145b611c50576040517f08c379a0000000000000000000000000000000000000000000000000000000008152600401611c479061342a565b60405180910390fd5b600160009054906101000a900473ffffffffffffffffffffffffffffffffffffffff1673ffffffffffffffffffffffffffffffffffffffff1663e02cec51600b6040518263ffffffff1660e01b8152600401611cac9190612d60565b600060405180830381600087803b158015611cc657600080fd5b505af1158015611cda573d6000803e3d6000fd5b505050506004600660006101000a81548160ff02191690836004811115611d0457611d0361253f565b5b02179055507ff753861cfc934b941e31112535668e6224e066828bece667247cac40f534f57560405160405180910390a1565b6060600080601360145460155482805480602002602001604051908101604052809291908181526020018280548015611dc557602002820191906000526020600020905b8160009054906101000a900473ffffffffffffffffffffffffffffffffffffffff1673ffffffffffffffffffffffffffffffffffffffff1681526020019060010190808311611d7b575b50505050509250925092509250909192565b600d6020528060005260406000206000915090505481565b600f5481565b600260009054906101000a900473ffffffffffffffffffffffffffffffffffffffff1681565b600b8181548110611e2b57600080fd5b906000526020600020016000915054906101000a900473ffffffffffffffffffffffffffffffffffffffff1681565b600c6020528060005260406000206000915054906101000a900460ff1681565b60008054906101000a900473ffffffffffffffffffffffffffffffffffffffff1681565b60155481565b600c60003373ffffffffffffffffffffffffffffffffffffffff1673ffffffffffffffffffffffffffffffffffffffff16815260200190815260200160002060009054906101000a900460ff16611f30576040517f08c379a0000000000000000000000000000000000000000000000000000000008152600401611f2790612e61565b60405180910390fd5b60016004811115611f4457611f4361253f565b5b600660009054906101000a900460ff166004811115611f6657611f6561253f565b5b14611fa6576040517f08c379a0000000000000000000000000000000000000000000000000000000008152600401611f9d90612850565b60405180910390fd5b600e60003373ffffffffffffffffffffffffffffffffffffffff1673ffffffffffffffffffffffffffffffffffffffff16815260200190815260200160002060009054906101000a900460ff1615612033576040517f08c379a000000000000000000000000000000000000000000000000000000000815260040161202a90613496565b60405180910390fd5b6001600e60003373ffffffffffffffffffffffffffffffffffffffff1673ffffffffffffffffffffffffffffffffffffffff16815260200190815260200160002060006101000a81548160ff02191690831515021790555080600d60003373ffffffffffffffffffffffffffffffffffffffff1673ffffffffffffffffffffffffffffffffffffffff16815260200190815260200160002081905550600f60008154809291906120e290612ab2565b91905055503373ffffffffffffffffffffffffffffffffffffffff167f0c1cb0da158543640fa92cd0bf702935d895934ccf1bfe36080d606293eacde18260405161212d9190612253565b60405180910390a250565b600080600090505b600b805490508110156121f35760126000600b838154811061216557612164612a83565b5b9060005260206000200160009054906101000a900473ffffffffffffffffffffffffffffffffffffffff1673ffffffffffffffffffffffffffffffffffffffff1673ffffffffffffffffffffffffffffffffffffffff16815260200190815260200160002060009054906101000a900460ff166121e65760009150506121f9565b8080600101915050612140565b50600190505b90565b508054600082559060005260206000209081019061221a919061221d565b50565b5b8082111561223657600081600090555060010161221e565b5090565b6000819050919050565b61224d8161223a565b82525050565b60006020820190506122686000830184612244565b92915050565b600080fd5b600080fd5b600073ffffffffffffffffffffffffffffffffffffffff82169050919050565b60006122a382612278565b9050919050565b6122b381612298565b81146122be57600080fd5b50565b6000813590506122d0816122aa565b92915050565b6000602082840312156122ec576122eb61226e565b5b60006122fa848285016122c1565b91505092915050565b60008115159050919050565b61231881612303565b82525050565b6000602082019050612333600083018461230f565b92915050565b600060408201905061234e600083018561230f565b61235b6020830184612244565b9392505050565b6000819050919050565b600061238761238261237d84612278565b612362565b612278565b9050919050565b60006123998261236c565b9050919050565b60006123ab8261238e565b9050919050565b6123bb816123a0565b82525050565b60006020820190506123d660008301846123b2565b92915050565b600081519050919050565b600082825260208201905092915050565b6000819050602082019050919050565b61241181612298565b82525050565b60006124238383612408565b60208301905092915050565b6000602082019050919050565b6000612447826123dc565b61245181856123e7565b935061245c836123f8565b8060005b8381101561248d5781516124748882612417565b975061247f8361242f565b925050600181019050612460565b5085935050505092915050565b600060208201905081810360008301526124b4818461243c565b905092915050565b6124c58161223a565b81146124d057600080fd5b50565b6000813590506124e2816124bc565b92915050565b6000602082840312156124fe576124fd61226e565b5b600061250c848285016124d3565b91505092915050565b61251e81612298565b82525050565b60006020820190506125396000830184612515565b92915050565b7f4e487b7100000000000000000000000000000000000000000000000000000000600052602160045260246000fd5b6005811061257f5761257e61253f565b5b50565b60008190506125908261256e565b919050565b60006125a082612582565b9050919050565b6125b081612595565b82525050565b60006020820190506125cb60008301846125a7565b92915050565b600080fd5b600080fd5b600080fd5b60008083601f8401126125f6576125f56125d1565b5b8235905067ffffffffffffffff811115612613576126126125d6565b5b60208301915083602082028301111561262f5761262e6125db565b5b9250929050565b60008083601f84011261264c5761264b6125d1565b5b8235905067ffffffffffffffff811115612669576126686125d6565b5b602083019150836020820283011115612685576126846125db565b5b9250929050565b600080600080604085870312156126a6576126a561226e565b5b600085013567ffffffffffffffff8111156126c4576126c3612273565b5b6126d0878288016125e0565b9450945050602085013567ffffffffffffffff8111156126f3576126f2612273565b5b6126ff87828801612636565b925092505092959194509250565b60006060820190508181036000830152612727818661243c565b90506127366020830185612244565b6127436040830184612244565b949350505050565b60006127568261238e565b9050919050565b6127668161274b565b82525050565b6000602082019050612781600083018461275d565b92915050565b600082825260208201905092915050565b7f4f6e6c7920686f73740000000000000000000000000000000000000000000000600082015250565b60006127ce600983612787565b91506127d982612798565b602082019050919050565b600060208201905081810360008301526127fd816127c1565b9050919050565b7f4e6f74207374796c696e67000000000000000000000000000000000000000000600082015250565b600061283a600b83612787565b915061284582612804565b602082019050919050565b600060208201905081810360008301526128698161282d565b9050919050565b7f4e65656420322b206f7574666974730000000000000000000000000000000000600082015250565b60006128a6600f83612787565b91506128b182612870565b602082019050919050565b600060208201905081810360008301526128d581612899565b9050919050565b7f57616974206f757466697473206f722074696d65000000000000000000000000600082015250565b6000612912601483612787565b915061291d826128dc565b602082019050919050565b6000602082019050818103600083015261294181612905565b9050919050565b7f4e487b7100000000000000000000000000000000000000000000000000000000600052601160045260246000fd5b60006129828261223a565b915061298d8361223a565b92508282019050808211156129a5576129a4612948565b5b92915050565b7f4e6f7420766f74696e6700000000000000000000000000000000000000000000600082015250565b60006129e1600a83612787565b91506129ec826129ab565b602082019050919050565b60006020820190508181036000830152612a10816129d4565b9050919050565b7f5761697420766f7465732f74696d650000000000000000000000000000000000600082015250565b6000612a4d600f83612787565b9150612a5882612a17565b602082019050919050565b60006020820190508181036000830152612a7c81612a40565b9050919050565b7f4e487b7100000000000000000000000000000000000000000000000000000000600052603260045260246000fd5b6000612abd8261223a565b91507fffffffffffffffffffffffffffffffffffffffffffffffffffffffffffffffff8203612aef57612aee612948565b5b600182019050919050565b6000612b058261223a565b9150612b108361223a565b9250828202612b1e8161223a565b91508282048414831517612b3557612b34612948565b5b5092915050565b7f4e487b7100000000000000000000000000000000000000000000000000000000600052601260045260246000fd5b6000612b768261223a565b9150612b818361223a565b925082612b9157612b90612b3c565b5b828204905092915050565b7f4e6f7420656e6f756768206f7574666974730000000000000000000000000000600082015250565b6000612bd2601283612787565b9150612bdd82612b9c565b602082019050919050565b60006020820190508181036000830152612c0181612bc5565b9050919050565b7f4e6f2077696e6e65727300000000000000000000000000000000000000000000600082015250565b6000612c3e600a83612787565b9150612c4982612c08565b602082019050919050565b60006020820190508181036000830152612c6d81612c31565b9050919050565b600081549050919050565b60008190508160005260206000209050919050565b60008160001c9050919050565b600073ffffffffffffffffffffffffffffffffffffffff82169050919050565b6000612cd4612ccf83612c94565b612ca1565b9050919050565b6000612ce78254612cc1565b9050919050565b6000600182019050919050565b6000612d0682612c74565b612d1081856123e7565b9350612d1b83612c7f565b8060005b83811015612d5357612d3082612cdb565b612d3a8882612417565b9750612d4583612cee565b925050600181019050612d1f565b5085935050505092915050565b60006020820190508181036000830152612d7a8184612cfb565b905092915050565b600081519050612d91816124bc565b92915050565b60008060408385031215612dae57612dad61226e565b5b6000612dbc85828601612d82565b9250506020612dcd85828601612d82565b9150509250929050565b60006060820190508181036000830152612df18186612cfb565b9050612e006020830185612244565b612e0d6040830184612244565b949350505050565b7f4f6e6c7920706c61796572000000000000000000000000000000000000000000600082015250565b6000612e4b600b83612787565b9150612e5682612e15565b602082019050919050565b60006020820190508181036000830152612e7a81612e3e565b9050919050565b7f416c726561647920766f74656400000000000000000000000000000000000000600082015250565b6000612eb7600d83612787565b9150612ec282612e81565b602082019050919050565b60006020820190508181036000830152612ee681612eaa565b9050919050565b7f4c656e677468206d69736d617463680000000000000000000000000000000000600082015250565b6000612f23600f83612787565b9150612f2e82612eed565b602082019050919050565b60006020820190508181036000830152612f5281612f16565b9050919050565b7f456d70747920766f746573000000000000000000000000000000000000000000600082015250565b6000612f8f600b83612787565b9150612f9a82612f59565b602082019050919050565b60006020820190508181036000830152612fbe81612f82565b9050919050565b7f4e6f2073656c6620766f74650000000000000000000000000000000000000000600082015250565b6000612ffb600c83612787565b915061300682612fc5565b602082019050919050565b6000602082019050818103600083015261302a81612fee565b9050919050565b7f546172676574206e6f7420706c61796572000000000000000000000000000000600082015250565b6000613067601183612787565b915061307282613031565b602082019050919050565b600060208201905081810360008301526130968161305a565b9050919050565b7f546172676574206e6f206f757466697400000000000000000000000000000000600082015250565b60006130d3601083612787565b91506130de8261309d565b602082019050919050565b60006020820190508181036000830152613102816130c6565b9050919050565b600060ff82169050919050565b61311f81613109565b811461312a57600080fd5b50565b60008135905061313c81613116565b92915050565b6000602082840312156131585761315761226e565b5b60006131668482850161312d565b91505092915050565b7f537461727320302e2e3500000000000000000000000000000000000000000000600082015250565b60006131a5600a83612787565b91506131b08261316f565b602082019050919050565b600060208201905081810360008301526131d481613198565b9050919050565b6131e481613109565b82525050565b60006020820190506131ff60008301846131db565b92915050565b7f4e6f74206c6f6262790000000000000000000000000000000000000000000000600082015250565b600061323b600983612787565b915061324682613205565b602082019050919050565b6000602082019050818103600083015261326a8161322e565b9050919050565b7f526f6f6d2066756c6c0000000000000000000000000000000000000000000000600082015250565b60006132a7600983612787565b91506132b282613271565b602082019050919050565b600060208201905081810360008301526132d68161329a565b9050919050565b7f416c7265616479206a6f696e6564000000000000000000000000000000000000600082015250565b6000613313600e83612787565b915061331e826132dd565b602082019050919050565b6000602082019050818103600083015261334281613306565b9050919050565b600060408201905061335e6000830185612515565b61336b6020830184612244565b9392505050565b7f4e65656420322b20706c61796572730000000000000000000000000000000000600082015250565b60006133a8600f83612787565b91506133b382613372565b602082019050919050565b600060208201905081810360008301526133d78161339b565b9050919050565b7f546f6f206c617465000000000000000000000000000000000000000000000000600082015250565b6000613414600883612787565b915061341f826133de565b602082019050919050565b6000602082019050818103600083015261344381613407565b9050919050565b7f416c7265616479207375626d6974746564000000000000000000000000000000600082015250565b6000613480601183612787565b915061348b8261344a565b602082019050919050565b600060208201905081810360008301526134af81613473565b905091905056fea26469706673582212206d56424842e4144ca2c825c4c4ebf5ff18b94c14f059f9085dd6b59684e07d8b64736f6c634300081a0033",
  "linkReferences": {},
  "deployedLinkReferences": {}
}