{
  "_format": "hh-sol-artifact-1",
  "contractName": "TokenSale",
  "sourceName": "contracts/TokenSale.sol",
  "abi": [
    {
      "inputs": [
        {
          "internalType": "address",
          "name": "tokenAddress",
          "type": "address"
        },
        {
          "internalType": "uint256",
          "name": "_tokensPerEth",
          "type": "uint256"
        }
      ],
      "stateMutability": "nonpayable",
      "type": "constructor"
    },
    {
      "inputs": [
        {
          "internalType": "address",
          "name": "owner",
          "type": "address"
        }
      ],
      "name": "OwnableInvalidOwner",
      "type": "error"
    },
    {
      "inputs": [
        {
          "internalType": "address",
          "name": "account",
          "type": "address"
        }
      ],
      "name": "OwnableUnauthorizedAccount",
      "type": "error"
    },
    {
      "anonymous": false,
      "inputs": [
        {
          "indexed": true,
          "internalType": "address",
          "name": "previousOwner",
          "type": "address"
        },
        {
          "indexed": true,
          "internalType": "address",
          "name": "newOwner",
          "type": "address"
        }
      ],
      "name": "OwnershipTransferred",
      "type": "event"
    },
    {
      "anonymous": false,
      "inputs": [
        {
          "indexed": true,
          "internalType": "address",
          "name": "buyer",
          "type": "address"
        },
        {
          "indexed": false,
          "internalType": "uint256",
          "name": "ethSpent",
          "type": "uint256"
        },
        {
          "indexed": false,
          "internalType": "uint256",
          "name": "tokensReceived",
          "type": "uint256"
        }
      ],
      "name": "TokensPurchased",
      "type": "event"
    },
    {
      "inputs": [],
      "name": "buyTokens",
      "outputs": [],
      "stateMutability": "payable",
      "type": "function"
    },
    {
      "inputs": [],
      "name": "owner",
      "outputs": [
        {
          "internalType": "address",
          "name": "",
          "type": "address"
        }
      ],
      "stateMutability": "view",
      "type": "function"
    },
    {
      "inputs": [],
      "name": "renounceOwnership",
      "outputs": [],
      "stateMutability": "nonpayable",
      "type": "function"
    },
    {
      "inputs": [
        {
          "internalType": "uint256",
          "name": "_tokensPerEth",
          "type": "uint256"
        }
      ],
      "name": "setTokensPerEth",
      "outputs": [],
      "stateMutability": "nonpayable",
      "type": "function"
    },
    {
      "inputs": [],
      "name": "token",
      "outputs": [
        {
          "internalType": "contract IERC20",
          "name": "",
          "type": "address"
        }
      ],
      "stateMutability": "view",
      "type": "function"
    },
    {
      "inputs": [],
      "name": "tokensPerEth",
      "outputs": [
        {
          "internalType": "uint256",
          "name": "",
          "type": "uint256"
        }
      ],
      "stateMutability": "view",
      "type": "function"
    },
    {
      "inputs": [
        {
          "internalType": "address",
          "name": "newOwner",
          "type": "address"
        }
      ],
      "name": "transferOwnership",
      "outputs": [],
      "stateMutability": "nonpayable",
      "type": "function"
    },
    {
      "inputs": [
        {
          "internalType": "address payable",
          "name": "to",
          "type": "address"
        }
      ],
      "name": "withdrawETH",
      "outputs": [],
      "stateMutability": "nonpayable",
      "type": "function"
    },
    {
      "inputs": [
        {
          "internalType": "address",
          "name": "to",
          "type": "address"
        },
        {
          "internalType": "uint256",
          "name": "amount",
          "type": "uint256"
        }
      ],
      "name": "withdrawUnsoldTokens",
      "outputs": [],
      "stateMutability": "nonpayable",
      "type": "function"
    }
  ],
  "bytecode": "0x608060405234801561001057600080fd5b5060405161126e38038061126e83398181016040528101906100329190610261565b33600073ffffffffffffffffffffffffffffffffffffffff168173ffffffffffffffffffffffffffffffffffffffff16036100a55760006040517f1e4fbdf700000000000000000000000000000000000000000000000000000000815260040161009c91906102b0565b60405180910390fd5b6100b48161010460201b60201c565b5081600160006101000a81548173ffffffffffffffffffffffffffffffffffffffff021916908373ffffffffffffffffffffffffffffffffffffffff1602179055508060028190555050506102cb565b60008060009054906101000a900473ffffffffffffffffffffffffffffffffffffffff169050816000806101000a81548173ffffffffffffffffffffffffffffffffffffffff021916908373ffffffffffffffffffffffffffffffffffffffff1602179055508173ffffffffffffffffffffffffffffffffffffffff168173ffffffffffffffffffffffffffffffffffffffff167f8be0079c531659141344cd1fd0a4f28419497f9722a3daafe3b4186f6b6457e060405160405180910390a35050565b600080fd5b600073ffffffffffffffffffffffffffffffffffffffff82169050919050565b60006101f8826101cd565b9050919050565b610208816101ed565b811461021357600080fd5b50565b600081519050610225816101ff565b92915050565b6000819050919050565b61023e8161022b565b811461024957600080fd5b50565b60008151905061025b81610235565b92915050565b60008060408385031215610278576102776101c8565b5b600061028685828601610216565b92505060206102978582860161024c565b9150509250929050565b6102aa816101ed565b82525050565b60006020820190506102c560008301846102a1565b92915050565b610f94806102da6000396000f3fe6080604052600436106100865760003560e01c8063cb6bb00611610059578063cb6bb0061461011f578063cbdd69b514610148578063d0febe4c14610173578063f2fde38b1461017d578063fc0c546a146101a657610086565b806356238b021461008b578063690d8320146100b4578063715018a6146100dd5780638da5cb5b146100f4575b600080fd5b34801561009757600080fd5b506100b260048036038101906100ad9190610936565b6101d1565b005b3480156100c057600080fd5b506100db60048036038101906100d691906109c1565b610226565b005b3480156100e957600080fd5b506100f26102e7565b005b34801561010057600080fd5b506101096102fb565b6040516101169190610a0f565b60405180910390f35b34801561012b57600080fd5b5061014660048036038101906101419190610a56565b610324565b005b34801561015457600080fd5b5061015d61047e565b60405161016a9190610aa5565b60405180910390f35b61017b610484565b005b34801561018957600080fd5b506101a4600480360381019061019f9190610ac0565b6106fc565b005b3480156101b257600080fd5b506101bb610782565b6040516101c89190610b4c565b60405180910390f35b6101d96107a8565b6000811161021c576040517f08c379a000000000000000000000000000000000000000000000000000000000815260040161021390610bc4565b60405180910390fd5b8060028190555050565b61022e6107a8565b600073ffffffffffffffffffffffffffffffffffffffff168173ffffffffffffffffffffffffffffffffffffffff160361029d576040517f08c379a000000000000000000000000000000000000000000000000000000000815260040161029490610c30565b60405180910390fd5b8073ffffffffffffffffffffffffffffffffffffffff166108fc479081150290604051600060405180830381858888f193505050501580156102e3573d6000803e3d6000fd5b5050565b6102ef6107a8565b6102f9600061082f565b565b60008060009054906101000a900473ffffffffffffffffffffffffffffffffffffffff16905090565b61032c6107a8565b600073ffffffffffffffffffffffffffffffffffffffff168273ffffffffffffffffffffffffffffffffffffffff160361039b576040517f08c379a000000000000000000000000000000000000000000000000000000000815260040161039290610c30565b60405180910390fd5b600160009054906101000a900473ffffffffffffffffffffffffffffffffffffffff1673ffffffffffffffffffffffffffffffffffffffff1663a9059cbb83836040518363ffffffff1660e01b81526004016103f8929190610c50565b6020604051808303816000875af1158015610417573d6000803e3d6000fd5b505050506040513d601f19601f8201168201806040525081019061043b9190610cb1565b61047a576040517f08c379a000000000000000000000000000000000000000000000000000000000815260040161047190610d2a565b60405180910390fd5b5050565b60025481565b600034116104c7576040517f08c379a00000000000000000000000000000000000000000000000000000000081526004016104be90610d96565b60405180910390fd5b6000670de0b6b3a7640000600254346104e09190610de5565b6104ea9190610e56565b905080600160009054906101000a900473ffffffffffffffffffffffffffffffffffffffff1673ffffffffffffffffffffffffffffffffffffffff166370a08231306040518263ffffffff1660e01b81526004016105489190610a0f565b602060405180830381865afa158015610565573d6000803e3d6000fd5b505050506040513d601f19601f820116820180604052508101906105899190610e9c565b10156105ca576040517f08c379a00000000000000000000000000000000000000000000000000000000081526004016105c190610f15565b60405180910390fd5b600160009054906101000a900473ffffffffffffffffffffffffffffffffffffffff1673ffffffffffffffffffffffffffffffffffffffff1663a9059cbb33836040518363ffffffff1660e01b8152600401610627929190610c50565b6020604051808303816000875af1158015610646573d6000803e3d6000fd5b505050506040513d601f19601f8201168201806040525081019061066a9190610cb1565b6106a9576040517f08c379a00000000000000000000000000000000000000000000000000000000081526004016106a090610d2a565b60405180910390fd5b3373ffffffffffffffffffffffffffffffffffffffff167f8fafebcaf9d154343dad25669bfa277f4fbacd7ac6b0c4fed522580e040a0f3334836040516106f1929190610f35565b60405180910390a250565b6107046107a8565b600073ffffffffffffffffffffffffffffffffffffffff168173ffffffffffffffffffffffffffffffffffffffff16036107765760006040517f1e4fbdf700000000000000000000000000000000000000000000000000000000815260040161076d9190610a0f565b60405180910390fd5b61077f8161082f565b50565b600160009054906101000a900473ffffffffffffffffffffffffffffffffffffffff1681565b6107b06108f3565b73ffffffffffffffffffffffffffffffffffffffff166107ce6102fb565b73ffffffffffffffffffffffffffffffffffffffff161461082d576107f16108f3565b6040517f118cdaa70000000000000000000000000000000000000000000000000000000081526004016108249190610a0f565b60405180910390fd5b565b60008060009054906101000a900473ffffffffffffffffffffffffffffffffffffffff169050816000806101000a81548173ffffffffffffffffffffffffffffffffffffffff021916908373ffffffffffffffffffffffffffffffffffffffff1602179055508173ffffffffffffffffffffffffffffffffffffffff168173ffffffffffffffffffffffffffffffffffffffff167f8be0079c531659141344cd1fd0a4f28419497f9722a3daafe3b4186f6b6457e060405160405180910390a35050565b600033905090565b600080fd5b6000819050919050565b61091381610900565b811461091e57600080fd5b50565b6000813590506109308161090a565b92915050565b60006020828403121561094c5761094b6108fb565b5b600061095a84828501610921565b91505092915050565b600073ffffffffffffffffffffffffffffffffffffffff82169050919050565b600061098e82610963565b9050919050565b61099e81610983565b81146109a957600080fd5b50565b6000813590506109bb81610995565b92915050565b6000602082840312156109d7576109d66108fb565b5b60006109e5848285016109ac565b91505092915050565b60006109f982610963565b9050919050565b610a09816109ee565b82525050565b6000602082019050610a246000830184610a00565b92915050565b610a33816109ee565b8114610a3e57600080fd5b50565b600081359050610a5081610a2a565b92915050565b60008060408385031215610a6d57610a6c6108fb565b5b6000610a7b85828601610a41565b9250506020610a8c85828601610921565b9150509250929050565b610a9f81610900565b82525050565b6000602082019050610aba6000830184610a96565b92915050565b600060208284031215610ad657610ad56108fb565b5b6000610ae484828501610a41565b91505092915050565b6000819050919050565b6000610b12610b0d610b0884610963565b610aed565b610963565b9050919050565b6000610b2482610af7565b9050919050565b6000610b3682610b19565b9050919050565b610b4681610b2b565b82525050565b6000602082019050610b616000830184610b3d565b92915050565b600082825260208201905092915050565b7f496e76616c696420726174650000000000000000000000000000000000000000600082015250565b6000610bae600c83610b67565b9150610bb982610b78565b602082019050919050565b60006020820190508181036000830152610bdd81610ba1565b9050919050565b7f4261642061646472657373000000000000000000000000000000000000000000600082015250565b6000610c1a600b83610b67565b9150610c2582610be4565b602082019050919050565b60006020820190508181036000830152610c4981610c0d565b9050919050565b6000604082019050610c656000830185610a00565b610c726020830184610a96565b9392505050565b60008115159050919050565b610c8e81610c79565b8114610c9957600080fd5b50565b600081519050610cab81610c85565b92915050565b600060208284031215610cc757610cc66108fb565b5b6000610cd584828501610c9c565b91505092915050565b7f546f6b656e207472616e73666572206661696c65640000000000000000000000600082015250565b6000610d14601583610b67565b9150610d1f82610cde565b602082019050919050565b60006020820190508181036000830152610d4381610d07565b9050919050565b7f53656e6420455448000000000000000000000000000000000000000000000000600082015250565b6000610d80600883610b67565b9150610d8b82610d4a565b602082019050919050565b60006020820190508181036000830152610daf81610d73565b9050919050565b7f4e487b7100000000000000000000000000000000000000000000000000000000600052601160045260246000fd5b6000610df082610900565b9150610dfb83610900565b9250828202610e0981610900565b91508282048414831517610e2057610e1f610db6565b5b5092915050565b7f4e487b7100000000000000000000000000000000000000000000000000000000600052601260045260246000fd5b6000610e6182610900565b9150610e6c83610900565b925082610e7c57610e7b610e27565b5b828204905092915050565b600081519050610e968161090a565b92915050565b600060208284031215610eb257610eb16108fb565b5b6000610ec084828501610e87565b91505092915050565b7f4e6f7420656e6f75676820746f6b656e7320696e2073616c6500000000000000600082015250565b6000610eff601983610b67565b9150610f0a82610ec9565b602082019050919050565b60006020820190508181036000830152610f2e81610ef2565b9050919050565b6000604082019050610f4a6000830185610a96565b610f576020830184610a96565b939250505056fea26469706673582212206f3fc5d2265fd700ff6a2c63aaf890ead030ab061f8fe7f7a56e9c3d1b63cdf964736f6c634300081a0033",
  "linkReferences": {},
  "deployedLinkReferences": {}
}