{
  "_format": "hh-sol-artifact-1",
  "contractName": "GameBank",
  "sourceName": "contracts/GameBank.sol",
  "abi": [
    {
      "inputs": [
        {
          "internalType": "address",
          "name": "tokenAddress",
          "type": "address"
        }
      ],
      "stateMutability": "nonpayable",
      "type": "constructor"
    },
    {
      "inputs": [
        {
          "internalType": "address",
          "name": "owner",
          "type": "address"
        }
      ],
      "name": "OwnableInvalidOwner",
      "type": "error"
    },
    {
      "inputs": [
        {
          "internalType": "address",
          "name": "account",
          "type": "address"
        }
      ],
      "name": "OwnableUnauthorizedAccount",
      "type": "error"
    },
    {
      "anonymous": false,
      "inputs": [
        {
          "indexed": true,
          "internalType": "address",
          "name": "room",
          "type": "address"
        },
        {
          "indexed": true,
          "internalType": "address",
          "name": "player",
          "type": "address"
        },
        {
          "indexed": false,
          "internalType": "uint256",
          "name": "amount",
          "type": "uint256"
        },
        {
          "indexed": false,
          "internalType": "uint256",
          "name": "roomPot",
          "type": "uint256"
        }
      ],
      "name": "Deposited",
      "type": "event"
    },
    {
      "anonymous": false,
      "inputs": [
        {
          "indexed": false,
          "internalType": "address",
          "name": "factory",
          "type": "address"
        }
      ],
      "name": "FactorySet",
      "type": "event"
    },
    {
      "anonymous": false,
      "inputs": [
        {
          "indexed": true,
          "internalType": "address",
          "name": "previousOwner",
          "type": "address"
        },
        {
          "indexed": true,
          "internalType": "address",
          "name": "newOwner",
          "type": "address"
        }
      ],
      "name": "OwnershipTransferred",
      "type": "event"
    },
    {
      "anonymous": false,
      "inputs": [
        {
          "indexed": true,
          "internalType": "address",
          "name": "room",
          "type": "address"
        },
        {
          "indexed": false,
          "internalType": "address[]",
          "name": "winners",
          "type": "address[]"
        },
        {
          "indexed": false,
          "internalType": "uint256",
          "name": "payoutPerWinner",
          "type": "uint256"
        },
        {
          "indexed": false,
          "internalType": "uint256",
          "name": "totalPot",
          "type": "uint256"
        }
      ],
      "name": "PaidOut",
      "type": "event"
    },
    {
      "anonymous": false,
      "inputs": [
        {
          "indexed": true,
          "internalType": "address",
          "name": "room",
          "type": "address"
        },
        {
          "indexed": false,
          "internalType": "uint256",
          "name": "totalPot",
          "type": "uint256"
        }
      ],
      "name": "Refunded",
      "type": "event"
    },
    {
      "anonymous": false,
      "inputs": [
        {
          "indexed": true,
          "internalType": "address",
          "name": "room",
          "type": "address"
        }
      ],
      "name": "RoomRegistered",
      "type": "event"
    },
    {
      "inputs": [
        {
          "internalType": "address",
          "name": "player",
          "type": "address"
        },
        {
          "internalType": "uint256",
          "name": "amount",
          "type": "uint256"
        }
      ],
      "name": "deposit",
      "outputs": [],
      "stateMutability": "nonpayable",
      "type": "function"
    },
    {
      "inputs": [
        {
          "internalType": "address",
          "name": "",
          "type": "address"
        },
        {
          "internalType": "address",
          "name": "",
          "type": "address"
        }
      ],
      "name": "depositOf",
      "outputs": [
        {
          "internalType": "uint256",
          "name": "",
          "type": "uint256"
        }
      ],
      "stateMutability": "view",
      "type": "function"
    },
    {
      "inputs": [],
      "name": "factory",
      "outputs": [
        {
          "internalType": "address",
          "name": "",
          "type": "address"
        }
      ],
      "stateMutability": "view",
      "type": "function"
    },
    {
      "inputs": [
        {
          "internalType": "address",
          "name": "room",
          "type": "address"
        }
      ],
      "name": "getPot",
      "outputs": [
        {
          "internalType": "uint256",
          "name": "",
          "type": "uint256"
        }
      ],
      "stateMutability": "view",
      "type": "function"
    },
    {
      "inputs": [
        {
          "internalType": "address",
          "name": "",
          "type": "address"
        }
      ],
      "name": "isRoom",
      "outputs": [
        {
          "internalType": "bool",
          "name": "",
          "type": "bool"
        }
      ],
      "stateMutability": "view",
      "type": "function"
    },
    {
      "inputs": [],
      "name": "owner",
      "outputs": [
        {
          "internalType": "address",
          "name": "",
          "type": "address"
        }
      ],
      "stateMutability": "view",
      "type": "function"
    },
    {
      "inputs": [
        {
          "internalType": "address[]",
          "name": "winners",
          "type": "address[]"
        }
      ],
      "name": "payout",
      "outputs": [
        {
          "internalType": "uint256",
          "name": "payoutPerWinner",
          "type": "uint256"
        },
        {
          "internalType": "uint256",
          "name": "totalPot",
          "type": "uint256"
        }
      ],
      "stateMutability": "nonpayable",
      "type": "function"
    },
    {
      "inputs": [
        {
          "internalType": "address",
          "name": "",
          "type": "address"
        }
      ],
      "name": "pot",
      "outputs": [
        {
          "internalType": "uint256",
          "name": "",
          "type": "uint256"
        }
      ],
      "stateMutability": "view",
      "type": "function"
    },
    {
      "inputs": [
        {
          "internalType": "address[]",
          "name": "players",
          "type": "address[]"
        }
      ],
      "name": "refund",
      "outputs": [],
      "stateMutability": "nonpayable",
      "type": "function"
    },
    {
      "inputs": [
        {
          "internalType": "address",
          "name": "room",
          "type": "address"
        }
      ],
      "name": "registerRoom",
      "outputs": [],
      "stateMutability": "nonpayable",
      "type": "function"
    },
    {
      "inputs": [],
      "name": "renounceOwnership",
      "outputs": [],
      "stateMutability": "nonpayable",
      "type": "function"
    },
    {
      "inputs": [
        {
          "internalType": "address",
          "name": "factoryAddress",
          "type": "address"
        }
      ],
      "name": "setFactory",
      "outputs": [],
      "stateMutability": "nonpayable",
      "type": "function"
    },
    {
      "inputs": [],
      "name": "token",
      "outputs": [
        {
          "internalType": "contract IERC20",
          "name": "",
          "type": "address"
        }
      ],
      "stateMutability": "view",
      "type": "function"
    },
    {
      "inputs": [
        {
          "internalType": "address",
          "name": "newOwner",
          "type": "address"
        }
      ],
      "name": "transferOwnership",
      "outputs": [],
      "stateMutability": "nonpayable",
      "type": "function"
    }
  ],
  "bytecode": "0x608060405234801561001057600080fd5b5060405161217638038061217683398181016040528101906100329190610223565b33600073ffffffffffffffffffffffffffffffffffffffff168173ffffffffffffffffffffffffffffffffffffffff16036100a55760006040517f1e4fbdf700000000000000000000000000000000000000000000000000000000815260040161009c919061025f565b60405180910390fd5b6100b4816100fc60201b60201c565b5080600160006101000a81548173ffffffffffffffffffffffffffffffffffffffff021916908373ffffffffffffffffffffffffffffffffffffffff1602179055505061027a565b60008060009054906101000a900473ffffffffffffffffffffffffffffffffffffffff169050816000806101000a81548173ffffffffffffffffffffffffffffffffffffffff021916908373ffffffffffffffffffffffffffffffffffffffff1602179055508173ffffffffffffffffffffffffffffffffffffffff168173ffffffffffffffffffffffffffffffffffffffff167f8be0079c531659141344cd1fd0a4f28419497f9722a3daafe3b4186f6b6457e060405160405180910390a35050565b600080fd5b600073ffffffffffffffffffffffffffffffffffffffff82169050919050565b60006101f0826101c5565b9050919050565b610200816101e5565b811461020b57600080fd5b50565b60008151905061021d816101f7565b92915050565b600060208284031215610239576102386101c0565b5b60006102478482850161020e565b91505092915050565b610259816101e5565b82525050565b60006020820190506102746000830184610250565b92915050565b611eed806102896000396000f3fe608060405234801561001057600080fd5b50600436106100ea5760003560e01c8063c45a01551161008c578063db71949111610066578063db7194911461024a578063e02cec511461027a578063f2fde38b14610296578063fc0c546a146102b2576100ea565b8063c45a0155146101e0578063ce07826e146101fe578063d9c2ac881461021a576100ea565b80635bb47808116100c85780635bb478081461016c578063715018a614610188578063799e898e146101925780638da5cb5b146101c2576100ea565b80634180c2d5146100ef57806347e7ef241461012057806355ca97ca1461013c575b600080fd5b61010960048036038101906101049190611423565b6102d0565b604051610117929190611489565b60405180910390f35b61013a6004803603810190610135919061153c565b61063c565b005b6101566004803603810190610151919061157c565b6109ee565b60405161016391906115c4565b60405180910390f35b6101866004803603810190610181919061157c565b610a0e565b005b610190610b91565b005b6101ac60048036038101906101a7919061157c565b610ba5565b6040516101b991906115df565b60405180910390f35b6101ca610bbd565b6040516101d79190611609565b60405180910390f35b6101e8610be6565b6040516101f59190611609565b60405180910390f35b6102186004803603810190610213919061157c565b610c0c565b005b610234600480360381019061022f9190611624565b610da9565b60405161024191906115df565b60405180910390f35b610264600480360381019061025f919061157c565b610dce565b60405161027191906115df565b60405180910390f35b610294600480360381019061028f9190611423565b610e17565b005b6102b060048036038101906102ab919061157c565b6111b5565b005b6102ba61123b565b6040516102c791906116c3565b60405180910390f35b600080600360003373ffffffffffffffffffffffffffffffffffffffff1673ffffffffffffffffffffffffffffffffffffffff16815260200190815260200160002060009054906101000a900460ff1661035f576040517f08c379a00000000000000000000000000000000000000000000000000000000081526004016103569061173b565b60405180910390fd5b600460003373ffffffffffffffffffffffffffffffffffffffff1673ffffffffffffffffffffffffffffffffffffffff168152602001908152602001600020549050600081116103e4576040517f08c379a00000000000000000000000000000000000000000000000000000000081526004016103db906117a7565b60405180910390fd5b6000848490501161042a576040517f08c379a000000000000000000000000000000000000000000000000000000000815260040161042190611813565b60405180910390fd5b83839050816104399190611891565b91506000848490508361044c91906118c2565b826104579190611904565b90506000600460003373ffffffffffffffffffffffffffffffffffffffff1673ffffffffffffffffffffffffffffffffffffffff1681526020019081526020016000208190555060005b858590508110156105df5760008082146104bc5760006104be565b825b856104c99190611938565b9050600160009054906101000a900473ffffffffffffffffffffffffffffffffffffffff1673ffffffffffffffffffffffffffffffffffffffff1663a9059cbb88888581811061051c5761051b61196c565b5b9050602002016020810190610531919061157c565b836040518363ffffffff1660e01b815260040161054f92919061199b565b6020604051808303816000875af115801561056e573d6000803e3d6000fd5b505050506040513d601f19601f8201168201806040525081019061059291906119f0565b6105d1576040517f08c379a00000000000000000000000000000000000000000000000000000000081526004016105c890611a69565b60405180910390fd5b5080806001019150506104a1565b503373ffffffffffffffffffffffffffffffffffffffff167fed13e6b98d9d5ee9e1db89602176d2031cd3b113b6304210f8df2202e0e9c2a78686868660405161062c9493929190611b4c565b60405180910390a2509250929050565b600360003373ffffffffffffffffffffffffffffffffffffffff1673ffffffffffffffffffffffffffffffffffffffff16815260200190815260200160002060009054906101000a900460ff166106c8576040517f08c379a00000000000000000000000000000000000000000000000000000000081526004016106bf9061173b565b60405180910390fd5b600073ffffffffffffffffffffffffffffffffffffffff168273ffffffffffffffffffffffffffffffffffffffff1603610737576040517f08c379a000000000000000000000000000000000000000000000000000000000815260040161072e90611bd8565b60405180910390fd5b6000811161077a576040517f08c379a000000000000000000000000000000000000000000000000000000000815260040161077190611c44565b60405180910390fd5b600160009054906101000a900473ffffffffffffffffffffffffffffffffffffffff1673ffffffffffffffffffffffffffffffffffffffff166323b872dd8330846040518463ffffffff1660e01b81526004016107d993929190611c64565b6020604051808303816000875af11580156107f8573d6000803e3d6000fd5b505050506040513d601f19601f8201168201806040525081019061081c91906119f0565b61085b576040517f08c379a000000000000000000000000000000000000000000000000000000000815260040161085290611ce7565b60405180910390fd5b80600560003373ffffffffffffffffffffffffffffffffffffffff1673ffffffffffffffffffffffffffffffffffffffff16815260200190815260200160002060008473ffffffffffffffffffffffffffffffffffffffff1673ffffffffffffffffffffffffffffffffffffffff16815260200190815260200160002060008282546108e79190611938565b9250508190555080600460003373ffffffffffffffffffffffffffffffffffffffff1673ffffffffffffffffffffffffffffffffffffffff168152602001908152602001600020600082825461093d9190611938565b925050819055508173ffffffffffffffffffffffffffffffffffffffff163373ffffffffffffffffffffffffffffffffffffffff167ff5681f9d0db1b911ac18ee83d515a1cf1051853a9eae418316a2fdf7dea427c583600460003373ffffffffffffffffffffffffffffffffffffffff1673ffffffffffffffffffffffffffffffffffffffff168152602001908152602001600020546040516109e2929190611489565b60405180910390a35050565b60036020528060005260406000206000915054906101000a900460ff1681565b610a16611261565b600073ffffffffffffffffffffffffffffffffffffffff16600260009054906101000a900473ffffffffffffffffffffffffffffffffffffffff1673ffffffffffffffffffffffffffffffffffffffff1614610aa7576040517f08c379a0000000000000000000000000000000000000000000000000000000008152600401610a9e90611d53565b60405180910390fd5b600073ffffffffffffffffffffffffffffffffffffffff168173ffffffffffffffffffffffffffffffffffffffff1603610b16576040517f08c379a0000000000000000000000000000000000000000000000000000000008152600401610b0d90611dbf565b60405180910390fd5b80600260006101000a81548173ffffffffffffffffffffffffffffffffffffffff021916908373ffffffffffffffffffffffffffffffffffffffff1602179055507f1edf3afd4ac789736e00d216cd88be164ddcef26a6eedcc30cdb0cb62f3741b181604051610b869190611609565b60405180910390a150565b610b99611261565b610ba360006112e8565b565b60046020528060005260406000206000915090505481565b60008060009054906101000a900473ffffffffffffffffffffffffffffffffffffffff16905090565b600260009054906101000a900473ffffffffffffffffffffffffffffffffffffffff1681565b600260009054906101000a900473ffffffffffffffffffffffffffffffffffffffff1673ffffffffffffffffffffffffffffffffffffffff163373ffffffffffffffffffffffffffffffffffffffff1614610c9c576040517f08c379a0000000000000000000000000000000000000000000000000000000008152600401610c9390611e2b565b60405180910390fd5b600073ffffffffffffffffffffffffffffffffffffffff168173ffffffffffffffffffffffffffffffffffffffff1603610d0b576040517f08c379a0000000000000000000000000000000000000000000000000000000008152600401610d0290611dbf565b60405180910390fd5b6001600360008373ffffffffffffffffffffffffffffffffffffffff1673ffffffffffffffffffffffffffffffffffffffff16815260200190815260200160002060006101000a81548160ff0219169083151502179055508073ffffffffffffffffffffffffffffffffffffffff167f3f62976bc41e5c99b54625551072fdff9375604ea81e871ec04533b32cd9071160405160405180910390a250565b6005602052816000526040600020602052806000526040600020600091509150505481565b6000600460008373ffffffffffffffffffffffffffffffffffffffff1673ffffffffffffffffffffffffffffffffffffffff168152602001908152602001600020549050919050565b600360003373ffffffffffffffffffffffffffffffffffffffff1673ffffffffffffffffffffffffffffffffffffffff16815260200190815260200160002060009054906101000a900460ff16610ea3576040517f08c379a0000000000000000000000000000000000000000000000000000000008152600401610e9a9061173b565b60405180910390fd5b6000600460003373ffffffffffffffffffffffffffffffffffffffff1673ffffffffffffffffffffffffffffffffffffffff1681526020019081526020016000205490506000600460003373ffffffffffffffffffffffffffffffffffffffff1673ffffffffffffffffffffffffffffffffffffffff1681526020019081526020016000208190555060005b83839050811015611161576000848483818110610f4f57610f4e61196c565b5b9050602002016020810190610f64919061157c565b90506000600560003373ffffffffffffffffffffffffffffffffffffffff1673ffffffffffffffffffffffffffffffffffffffff16815260200190815260200160002060008373ffffffffffffffffffffffffffffffffffffffff1673ffffffffffffffffffffffffffffffffffffffff1681526020019081526020016000205490506000811115611152576000600560003373ffffffffffffffffffffffffffffffffffffffff1673ffffffffffffffffffffffffffffffffffffffff16815260200190815260200160002060008473ffffffffffffffffffffffffffffffffffffffff1673ffffffffffffffffffffffffffffffffffffffff16815260200190815260200160002081905550600160009054906101000a900473ffffffffffffffffffffffffffffffffffffffff1673ffffffffffffffffffffffffffffffffffffffff1663a9059cbb83836040518363ffffffff1660e01b81526004016110cf92919061199b565b6020604051808303816000875af11580156110ee573d6000803e3d6000fd5b505050506040513d601f19601f8201168201806040525081019061111291906119f0565b611151576040517f08c379a000000000000000000000000000000000000000000000000000000000815260040161114890611e97565b60405180910390fd5b5b50508080600101915050610f2f565b503373ffffffffffffffffffffffffffffffffffffffff167fd7dee2702d63ad89917b6a4da9981c90c4d24f8c2bdfd64c604ecae57d8d0651826040516111a891906115df565b60405180910390a2505050565b6111bd611261565b600073ffffffffffffffffffffffffffffffffffffffff168173ffffffffffffffffffffffffffffffffffffffff160361122f5760006040517f1e4fbdf70000000000000000000000000000000000000000000000000000000081526004016112269190611609565b60405180910390fd5b611238816112e8565b50565b600160009054906101000a900473ffffffffffffffffffffffffffffffffffffffff1681565b6112696113ac565b73ffffffffffffffffffffffffffffffffffffffff16611287610bbd565b73ffffffffffffffffffffffffffffffffffffffff16146112e6576112aa6113ac565b6040517f118cdaa70000000000000000000000000000000000000000000000000000000081526004016112dd9190611609565b60405180910390fd5b565b60008060009054906101000a900473ffffffffffffffffffffffffffffffffffffffff169050816000806101000a81548173ffffffffffffffffffffffffffffffffffffffff021916908373ffffffffffffffffffffffffffffffffffffffff1602179055508173ffffffffffffffffffffffffffffffffffffffff168173ffffffffffffffffffffffffffffffffffffffff167f8be0079c531659141344cd1fd0a4f28419497f9722a3daafe3b4186f6b6457e060405160405180910390a35050565b600033905090565b600080fd5b600080fd5b600080fd5b600080fd5b600080fd5b60008083601f8401126113e3576113e26113be565b5b8235905067ffffffffffffffff811115611400576113ff6113c3565b5b60208301915083602082028301111561141c5761141b6113c8565b5b9250929050565b6000806020838503121561143a576114396113b4565b5b600083013567ffffffffffffffff811115611458576114576113b9565b5b611464858286016113cd565b92509250509250929050565b6000819050919050565b61148381611470565b82525050565b600060408201905061149e600083018561147a565b6114ab602083018461147a565b9392505050565b600073ffffffffffffffffffffffffffffffffffffffff82169050919050565b60006114dd826114b2565b9050919050565b6114ed816114d2565b81146114f857600080fd5b50565b60008135905061150a816114e4565b92915050565b61151981611470565b811461152457600080fd5b50565b60008135905061153681611510565b92915050565b60008060408385031215611553576115526113b4565b5b6000611561858286016114fb565b925050602061157285828601611527565b9150509250929050565b600060208284031215611592576115916113b4565b5b60006115a0848285016114fb565b91505092915050565b60008115159050919050565b6115be816115a9565b82525050565b60006020820190506115d960008301846115b5565b92915050565b60006020820190506115f4600083018461147a565b92915050565b611603816114d2565b82525050565b600060208201905061161e60008301846115fa565b92915050565b6000806040838503121561163b5761163a6113b4565b5b6000611649858286016114fb565b925050602061165a858286016114fb565b9150509250929050565b6000819050919050565b600061168961168461167f846114b2565b611664565b6114b2565b9050919050565b600061169b8261166e565b9050919050565b60006116ad82611690565b9050919050565b6116bd816116a2565b82525050565b60006020820190506116d860008301846116b4565b92915050565b600082825260208201905092915050565b7f4f6e6c7920726f6f6d0000000000000000000000000000000000000000000000600082015250565b60006117256009836116de565b9150611730826116ef565b602082019050919050565b6000602082019050818103600083015261175481611718565b9050919050565b7f456d70747920706f740000000000000000000000000000000000000000000000600082015250565b60006117916009836116de565b915061179c8261175b565b602082019050919050565b600060208201905081810360008301526117c081611784565b9050919050565b7f4e6f2077696e6e65727300000000000000000000000000000000000000000000600082015250565b60006117fd600a836116de565b9150611808826117c7565b602082019050919050565b6000602082019050818103600083015261182c816117f0565b9050919050565b7f4e487b7100000000000000000000000000000000000000000000000000000000600052601260045260246000fd5b7f4e487b7100000000000000000000000000000000000000000000000000000000600052601160045260246000fd5b600061189c82611470565b91506118a783611470565b9250826118b7576118b6611833565b5b828204905092915050565b60006118cd82611470565b91506118d883611470565b92508282026118e681611470565b915082820484148315176118fd576118fc611862565b5b5092915050565b600061190f82611470565b915061191a83611470565b925082820390508181111561193257611931611862565b5b92915050565b600061194382611470565b915061194e83611470565b925082820190508082111561196657611965611862565b5b92915050565b7f4e487b7100000000000000000000000000000000000000000000000000000000600052603260045260246000fd5b60006040820190506119b060008301856115fa565b6119bd602083018461147a565b9392505050565b6119cd816115a9565b81146119d857600080fd5b50565b6000815190506119ea816119c4565b92915050565b600060208284031215611a0657611a056113b4565b5b6000611a14848285016119db565b91505092915050565b7f7472616e73666572206661696c65640000000000000000000000000000000000600082015250565b6000611a53600f836116de565b9150611a5e82611a1d565b602082019050919050565b60006020820190508181036000830152611a8281611a46565b9050919050565b600082825260208201905092915050565b6000819050919050565b611aad816114d2565b82525050565b6000611abf8383611aa4565b60208301905092915050565b6000611ada60208401846114fb565b905092915050565b6000602082019050919050565b6000611afb8385611a89565b9350611b0682611a9a565b8060005b85811015611b3f57611b1c8284611acb565b611b268882611ab3565b9750611b3183611ae2565b925050600181019050611b0a565b5085925050509392505050565b60006060820190508181036000830152611b67818688611aef565b9050611b76602083018561147a565b611b83604083018461147a565b95945050505050565b7f42616420706c6179657200000000000000000000000000000000000000000000600082015250565b6000611bc2600a836116de565b9150611bcd82611b8c565b602082019050919050565b60006020820190508181036000830152611bf181611bb5565b9050919050565b7f42616420616d6f756e7400000000000000000000000000000000000000000000600082015250565b6000611c2e600a836116de565b9150611c3982611bf8565b602082019050919050565b60006020820190508181036000830152611c5d81611c21565b9050919050565b6000606082019050611c7960008301866115fa565b611c8660208301856115fa565b611c93604083018461147a565b949350505050565b7f7472616e7366657246726f6d206661696c656400000000000000000000000000600082015250565b6000611cd16013836116de565b9150611cdc82611c9b565b602082019050919050565b60006020820190508181036000830152611d0081611cc4565b9050919050565b7f466163746f727920616c72656164792073657400000000000000000000000000600082015250565b6000611d3d6013836116de565b9150611d4882611d07565b602082019050919050565b60006020820190508181036000830152611d6c81611d30565b9050919050565b7f4261642061646472657373000000000000000000000000000000000000000000600082015250565b6000611da9600b836116de565b9150611db482611d73565b602082019050919050565b60006020820190508181036000830152611dd881611d9c565b9050919050565b7f4f6e6c7920666163746f72790000000000000000000000000000000000000000600082015250565b6000611e15600c836116de565b9150611e2082611ddf565b602082019050919050565b60006020820190508181036000830152611e4481611e08565b9050919050565b7f726566756e64207472616e73666572206661696c656400000000000000000000600082015250565b6000611e816016836116de565b9150611e8c82611e4b565b602082019050919050565b60006020820190508181036000830152611eb081611e74565b905091905056fea26469706673582212209590ff6fecff3d0c23edd2848597bcda4e56309a3b685f80647fb1ec2dba4de364736f6c634300081a0033",
  "linkReferences": {},
  "deployedLinkReferences": {}
}